:020000040800F2
:100000007878002069020008C9590008F9440008FE
:10001000C55900081D0800082594000800000000CC
:10002000000000000000000000000000F16900086E
:10003000710E000800000000715B0008156A0008DE
:10004000830200088302000883020008830200087C
:100050008302000883020008750E0008830200086E
:10006000830200087D0E0008850E00088302000848
:10007000830200088302000883020008830200084C
:10008000830200088302000883020008830200083C
:100090002108000883020008830200088D0E000872
:1000A000830200088302000883020008830200081C
:1000B000016B000883020008830200088302000825
:1000C00083020008830200088302000883020008FC
:1000D00083020008830200088302000883020008EC
:1000E00083020008830200088302000883020008DC
:1000F00083020008830200088302000883020008CC
:1001000083020008830200088302000883020008BB
:1001100083020008830200088302000883020008AB
:100120008302000883020008A1090008650E000888
:10013000830200088302000883020008830200088B
:100140002D0800088302000883020008CD5900082A
:10015000830200088302000883020008830200086B
:10016000830200088302000883020008830200085B
:1001700083020008830200088302000800000000D8
:10018000830200088302000800F002F800F05CF827
:100190000AA090E8000C82448344AAF10107DA45E2
:1001A00001D100F051F8AFF2090EBAE80F0013F0D8
:1001B000010F18BFFB1A43F0010318476CDB000066
:1001C0008CDB00000A444FF0000C10F8013B13F0E8
:1001D000070408BF10F8014B1D1108BF10F8015BA0
:1001E000641E05D010F8016B641E01F8016BF9D193
:1001F00013F0080F1EBF10F8014BAD1C0C1B09D1EA
:100200006D1E58BF01F801CBFAD505E014F8016B5B
:1002100001F8016B6D1EF9D59142D6D370470000ED
:100220000023002400250026103A28BF78C1FBD8FF
:10023000520728BF30C148BF0B6070471FB50DF093
:1002400060FC1FBD10B510BD00F00AF91146FFF7A4
:10025000F5FF0AF027F900F028F903B4FFF7F2FFE1
:1002600003BC00F02BF9000009488047094800470B
:10027000FEE7FEE7FEE7FEE7FEE7FEE7FEE7FEE756
:10028000FEE7FEE704480549054A064B70470000B3
:10029000ED6A000889010008787200207878002053
:1002A000787400207874002053EA020C00F0698012
:1002B0002DE9F04B4FF00006002B1FBFB3FA83F57A
:1002C00003FA05F424FA05F65E4012BF1643B2FAAB
:1002D00082F502FA05F4C5F120051EBF22FA05FCDD
:1002E00044EA0C04203556EA044C4FEA144418BF83
:1002F000641C4FF000084FF00009904271EB030CB2
:1003000039D3002919BFB1FA81F701FA07F6B0FA1B
:1003100080F700FA07F6C7F120071EBF20FA07FC96
:1003200046EA0C062037B6FBF4FCA7EB0507103FA6
:1003300007F01F0BCBF120062CFA06F60CFA0BFB8C
:1003400044BFB3460026202FA4BF5E464FF0000BEB
:100350005BEA060C08BF4FF0010B19EB0B0948EBE9
:100360000608ABFB027C06FB02CC0BFB03CCC01BDC
:1003700071EB0C01C1E70B46024641464846BDE819
:10038000F08B13B5084318BF4FF0FF300146AFF3B1
:100390000080BDE81C40704710B5431C02E010F817
:1003A000011B71B18107FAD14FF0013202C88C1ADA
:1003B0008C4314EAC211F9D0C01A0A0603D0C01E39
:1003C00010BDC01A10BD0A0401D0801E10BD090264
:1003D000FCD0401E10BD02F0FF0343EA032242EAB4
:1003E000024200F002B84FF0000200B513469446F6
:1003F0009646203922BFA0E80C50A0E80C50B1F17D
:100400002001BFF4F7AF090728BFA0E80C5048BF90
:100410000CC05DF804EB890028BF40F8042B08BF2E
:10042000704748BF20F8022B11F0804F18BF00F82A
:10043000012B704770477047704710B500F008F8FF
:10044000006810BD10B5044600F002F8046010BD4D
:1004500000487047500100200048704750010020BC
:100460007546FFF7F9FFAE4605006946534620F092
:100470000700854618B020B5FFF704FFBDE820400F
:100480004FF000064FF000074FF000084FF0000B50
:10049000AC46ACE8C009ACE8C009ACE8C009ACE8BF
:1004A000C00921F007018D46704710B50446AFF32F
:1004B00000802046BDE81040FFF7CFBE014918205C
:1004C000ABBEFEE726000200704700000020C4F229
:1004D00002001021012201F0DBBB00000020C4F269
:1004E00002001021002201F0D3BB00007047000081
:1004F00040F20040C4F202000121012201F0C8BB19
:1005000040F20040C4F202000121002201F0C0BB11
:10051000B0F9003040F2200CC2F2000C00EE103AAC
:100520009CED001AB8EEC00A21EE000A81ED000A27
:10053000B0F902309CED001A00EE103AB8EEC00A95
:1005400021EE000A81ED010AB0F9043000EE103A04
:10055000B8EEC00A21EE000A81ED020AC379817962
:10056000007A1B0243EA0040084400EE100A9FEDA7
:10057000041AB8EE400A20EE010A82ED000A704724
:1005800000401C42704700000AF0B8B809F026BDD0
:10059000B0F9002000EE102A40F22002C2F2000260
:1005A00092ED011AB8EEC00A21EE000A81ED000AB0
:1005B000B0F9023092ED011A00EE103AB8EEC00A1E
:1005C00021EE000A81ED010AB0F9040000EE100AE4
:1005D000B8EEC00A21EE000A81ED020A7047000061
:1005E00010B5FFF783FFFFF7CDFF09F06BF808B1F7
:1005F000802402E008F018FF044609F099FB002867
:100600001CBF44F0400010BD09F088FA204310BD23
:100610002DE9F04F83B002920E460190FFF75EFF86
:10062000922000F0C5F8922000F0C2F8552000F0AA
:10063000BFF88046552000F0BBF88346552000F0F7
:10064000B7F88246552000F0B3F80446552000F074
:10065000AFF80746552000F0ABF80546FFF736FF28
:1006600048EA0B2040F2200900B2C2F2000900EE75
:10067000100A99ED001AB8EEC00A4AEA042021EEE9
:10068000000A00B286ED000A00EE100A47EA0520D3
:1006900000B299ED001A02EE100AB8EEC00AB8EEE8
:1006A000C22A21EE000A21EE021A86ED010A86ED29
:1006B000021AFFF725FF802000F07AF8552000F09D
:1006C00077F80646552000F073F8552000F070F8D2
:1006D0008246552000F06CF80546552000F068F879
:1006E0008346552000F064F80446552000F060F879
:1006F0000746552000F05CF88046FFF7F9FE0F2E04
:1007000025D14AEA052000B200EE100A99ED011A3F
:10071000B8EEC00A01994BEA042021EE000A00B2AB
:1007200081ED000A00EE100A47EA082000B299EDB8
:10073000011A02EE100AB8EEC00AB8EEC22A21EE83
:10074000000A21EE021A81ED010A81ED021AFFF77B
:10075000C5FEA22000F02CF8A22000F029F85520B8
:1007600000F026F80446552000F022F80546FFF771
:10077000ADFEE00040EA55104FF600010022CFF632
:10078000FF71B2EB902F18BF084300EE100AB8EECD
:10079000C00AB4EE001A20EE010AB3EE071A02985E
:1007A00030EE010A80ED000A03B0BDE8F08F0000D2
:1007B00080B582B08DF8070042F288104FF47A7C41
:1007C000C2F200000DF107010DF106020123CDF880
:1007D00000C003F04BFA9DF8060002B080BD000097
:1007E00002784078D20042EA50104FF6000200230F
:1007F000CFF6FF72B3EB902F18BF104300EE100A34
:10080000B8EEC00AB4EE001A20EE010AB3EE071AE1
:1008100030EE010A81ED000A70470000FEE700009B
:1008200041F64030C2F2000000F0AEBC41F6683044
:10083000C2F2000000F0A8BCB0B582B040F2782C43
:10084000C2F2000C4FEA102E0CF808EF8CF80100F1
:10085000080A8CF80200100A4FF40074E6468CF87F
:100860000400180A4EF8204F8CF8060041F640307C
:10087000002408258CF803108CF805208CF807302C
:10088000C2F2000001AB71466246CCE90A44CCF8E2
:10089000305000F01BFB02B0B0BD0000B0B582B01C
:1008A00040F2782CC2F2000C40F2FF14E6464EF8FB
:1008B000104F0024CCE90644040A8CF80100080A11
:1008C0008CF80200100A8CF80400180A8CF8060054
:1008D00041F6403008258CF803108CF805208CF880
:1008E0000730C2F2000001AB71466246CCF82050DE
:1008F0008CF8004000F0EAFA02B0B0BD002070476A
:100900000020704710B541F66404C2F2000441F2C1
:100910006401C2F200012046002206F067FB40F6A7
:100920006401C2F20001204606F052FB002010BD17
:10093000B0B541F66405C2F200050C4601462846F2
:1009400006F046FB284606F01DFB206845F6D471EC
:10095000C2F20001A1F800080122002081F802285B
:10096000B0BD00000020704710B541F66402C2F22D
:100970000002D2F8BC22D2F81432002B1CBF012096
:1009800010BD41F66404C2F200040A460146204646
:1009900006F02CFB2046BDE8104006F0B5BB000079
:1009A000AFF30080B0B542F28810C2F20000C16C13
:1009B00046F2A040C4F202000968A0F14802914248
:1009C00026D946F29F0350F89C2CC4F202039942A8
:1009D0004FF020036CDD46F23F45C4F20205A94208
:1009E00000F3808046F2A005C4F20205A94200F09F
:1009F000AF8046F21045C4F20205A94200F0D5804E
:100A000046F22843C4F20203994200F0CC808BE105
:100A100046F25802C4F2020202F16003994223D95D
:100A200046F29F03D2F8A823C4F2020399424FF082
:100A3000200340F3938046F23F45C4F20205A942E9
:100A400000F3D68046F2A005C4F20205A94200F0E8
:100A5000F78046F21045C4F20205A94200F03E813B
:100A600046F2284334E100BF46F29F059142C4F2AA
:100A700002054FD952F854CCA9424FF020044FDC64
:100A800046F23F05C4F20205A94240F3E58046F272
:100A90004005C4F20205A94200F0D88046F2700574
:100AA000C4F20205A94200F0E68046F28805DBE0C8
:100AB00046F23F05C4F20205A94267DD46F2400551
:100AC000C4F20205A94243D046F27005C4F2020501
:100AD000A9426AD046F28803C4F20203994214D0B4
:100AE00022E100BF46F24045C4F20205A9422FD0E0
:100AF00046F27045C4F20205A94256D046F2884338
:100B0000C4F20203994240F00F814FF40063134294
:100B10004ED140E152F858CCA9424FF02004AFDD4D
:100B200046F23F45C4F20205A94279DC46F2A0052F
:100B3000C4F20205A94200F0898046F21045C4F2D1
:100B40000205A94200F0978046F228458CE000BFDC
:100B50004FF4001313422BD11DE100BF46F23F05B5
:100B6000C4F20205A94240F3AB8046F24005C4F24C
:100B70000205A94264D046F27005C4F20205A942FA
:100B800000F0AC8046F2880340E000BF46F210055A
:100B9000C4F20205A94208D046F22803C4F20203B7
:100BA000994240F0C1804FF40063134200F0F3809B
:100BB00046F27042C4F2020291420BD046F28842E1
:100BC000C4F20202914209D14FF4006240F8942C21
:100BD000F2E000BF202240F8942CEDE04FF00062DC
:100BE000814208BF4FF4001240F8942CE4E000BFAB
:100BF00046F24045C4F20205A94221D046F27045B2
:100C0000C4F20205A94269D046F28843C4F2020345
:100C1000994240F0AB804FF40063134260D1BAE0D8
:100C200046F24045C4F20205A9420FD046F2704593
:100C3000C4F20205A9421ED046F2884514E000BF66
:100C40004FF4001313424BD1A5E000BF4FF4001442
:100C500004EA0C05A5B99EE046F21005C4F20205AF
:100C6000A94208D046F22805C4F20205A94240F084
:100C700087804FF4006404EA0C05002D00F08B809F
:100C800099422DD8914259D946F27000C4F202001F
:100C9000814200F0818046F28800C4F20200814265
:100CA00000F07E8046F2A000C4F2020081420CBF38
:100CB0004FF400104FF0006042F84C0C7CE000BF95
:100CC00046F21005C4F20205A94207D046F22803F5
:100CD000C4F20203994249D14FF4006313425AD03F
:100CE00046F21042C4F20202914219D046F2284262
:100CF000C4F2020291420DD046F24042C4F2020216
:100D000091420CBF4FF400114FF0006140F8981C65
:100D100052E000BF4FF4006140F8981C4CE000BF67
:100D2000202140F8981C47E04FF00063814208BF43
:100D30004FF4001313427FF43BAF2CE046F2100057
:100D4000C4F20200814231D046F22800C4F202000F
:100D500081422DD046F24000C4F2020081420CBF15
:100D60004FF400104FF0006024E000BF4FF000632C
:100D7000814208BF4FF400131342B1D10BE000BF12
:100D80004FF00064814208BF4FF4001404EA0C05E0
:100D9000002D7FF475AFB0BD202042F84C0C0BE065
:100DA0004FF4006042F84C0C06E000BF202001E048
:100DB0004FF4006042F8500C40F2FC25C2F20005EE
:100DC000287800248007C4F2020429D468788007B8
:100DD00037D4A87880070CD5A878102100F0FD0042
:100DE000A870A878012240F00400A870204600F006
:100DF0004FFF09F0EBF92878400758BFB0BD2878BD
:100E000000F0FB002870287840F00800287043F6B6
:100E10001040C4F20100016841F001010160B0BD61
:100E20002878012100F0FD0028702878012240F088
:100E30000400287004F5806000F02AFF68788007BD
:100E4000C7D56878102100F0FD006870687801222D
:100E500040F004006870204600F01AFFA878800770
:100E6000C7D5B9E741F6F030C2F2000000F03ABC55
:100E700070470000012000F021BE0000082000F0B3
:100E80001DBE0000102000F019BE0000202000F060
:100E900015BE000072B600BFFEE7000090F82020EB
:100EA000013A012A08D8006800F1140200201368F2
:100EB00019431160704700BF00F1240201204FF474
:100EC00080211368194311607047000010B590F835
:100ED00020E0D0F800C0AEF1010EBEF1010FDCF849
:100EE00008E00FD81EF0E05F16D0CEF3016E0120AF
:100EF00000FA0EF018608B68C3B1486843EAC0037B
:100F000016E000BF00F1240101204FF480220B689D
:100F10001A430A6010BD00BF00F1240101204FF404
:100F200000120B681A430A6010BD00BF0868430531
:100F3000D1E9030403430CEB0E10C0F88031C0F874
:100F40008441097D012905D100F5C2710B6843F484
:100F500080730B605168C0F88C11126800F5C07185
:100F6000C0F88821002001220B681A430A6010BDD6
:100F7000B0B590F82020013A012A2FD846F200603F
:100F8000C4F20000026842F001020260026822F42A
:100F90007C520260D1F814E0CC694A6A0368012CE3
:100FA00043EA022202600EF01F024FF0010303FA2F
:100FB00002F2C3696FEA020C23EA0203C36113D091
:100FC0002CBBC36803EA0C03C360CB688C8844EA7B
:100FD000034300EBCE0423640B4611E0416A41F465
:100FE000802141620120B0BDC3681343C3600B6818
:100FF0008C8844EA034300EBCE04236401F10C0324
:101000008C681B8843EA044300EBCE0463644368A6
:101010008D6943EA0204D1F810E0096A002D08BF87
:1010200003EA0C0444604369BEF1000F43EA020482
:1010300008BF03EA0C040129446102D1C1691143CC
:10104000C161016821F0010101600020B0BD000014
:101050007047000010B590F82040013C012C7BD86F
:10106000D0F800C0002900F08180DCF81040A4070F
:1010700000F081800CEB011CDCF8B0410CF5D87E4F
:1010800014F004049460DCF8B04119BFE408546023
:10109000640D1460DEF800400CF5DA7E04F0020402
:1010A000D460DCF8B44124075ABFDEF8004004F0F5
:1010B0000F0408241461DEF800400029C4F307245B
:1010C0009461DEF800404FEA14445461DCF8B82122
:1010D0001A70026802EB0112D2F8B8214FEA12220C
:1010E0005A70026802EB0112D2F8B8214FEA12429C
:1010F0009A70026802EB0112D2F8B8214FEA12622C
:10110000DA70026802EB0112D2F8BC211A7102688F
:1011100002EB0112D2F8BC214FEA12225A71026886
:1011200002EB0112D2F8BC214FEA12429A71026816
:1011300002EB0112D2F8BC214FEA1262DA710068A8
:1011400014BF00F1100100F10C01002020220B68F7
:101150001A430A6010BD00BF00F1240101204FF4C2
:1011600080220B681A430A6010BD00BFDCF80C40F7
:10117000A4077FF47FAF00F1240101204FF4001297
:101180000B681A430A6010BD2DE9F04F81B0044688
:1011900000684669D0F804908768D0F80CB0D0F8A1
:1011A00010A0D0F81880F10704D1002530071DD415
:1011B00024E000BFF90710D00121BA07816009D4EB
:1011C000780700F1AF80380700F1B680204600F0C4
:1011D0007BFA02E0204600F079FA0025F80500F1DC
:1011E0008780F80300F1B180300707D51BF01000AD
:1011F00004D0206845F400751021C160700708D53F
:101200001BF0080005D020680821C160204600F0CE
:10121000F5F9B00706D52068C068800702D02046DF
:1012200000F0EEF9700607D51AF0100004D020681F
:1012300045F4806510210161B00608D51AF0080058
:1012400005D0206808210161204600F009FAF00667
:1012500006D520680069800702D0204600F002FA17
:10126000B00308D519F0100005D0206810214160A6
:10127000204600F0F9F9F00308D519F0080005D070
:10128000206808214160204600F02AFA300440F12D
:101290009B805FEA497040F1948006F4807008EA10
:1012A000102028435FEA8871014648BF41F00201DF
:1012B000B20558BF01465FEA48700D4648BF45F089
:1012C0000405700558BF0D46300540F17A8018F0CE
:1012D000700000F076801038000905286CD8DFE82F
:1012E00000F003595D61656945F0080564E000BFE1
:1012F00020684FF48071BA0581600BD4780515D44D
:1013000038051DD4204600F0E3F9F8037FF56CAFF3
:101310001BE000BF204600F0DDF9F8037FF564AF65
:1013200013E000BF4FF4006558E700BF05F5005516
:10133000F8037FF559AF08E04FF480554EE700BF42
:1013400005F58045F8037FF54FAF20684FF48031F5
:10135000BA0381600AD4780310D4380314D4204629
:1013600000F0BAF930073FF541AF47E7204600F0FB
:10137000B5F930073FF53AAF40E700BF05F5004546
:1013800030073FF533AF39E705F5803530073FF5D6
:101390002DAF33E745F010050EE000BF45F0200506
:1013A0000AE000BF45F0400506E000BF45F08005BB
:1013B00002E000BF45F480752068816921F070016A
:1013C000816120680421416055B1606A40EA0501ED
:1013D0002046616201B0BDE8F04FFFF739BE00BFA3
:1013E00001B0BDE8F08F0000B0B5C8B1044690F878
:1013F000200010B9204600F071F82068016841F023
:101400000101016000F04AFC054600BF2068416808
:10141000C90707D100F042FC401B0B28F6D312E0AD
:101420000120B0BD016821F00201016000F036FC2E
:10143000054600BF2068416889070DD500F02EFCE5
:10144000401B0B28F6D3606A052140F4003060622F
:10145000012084F82010B0BD217E0268012922F00D
:10146000800208BF80320260617E0268012922F09A
:10147000400208BF40320260A17E0268012922F0CA
:10148000200208BF20320260E17E0268012922F0BA
:10149000100218BF10320260217F0268012922F079
:1014A000080208BF08320260617F0268012922F049
:1014B000040208BF04320260D4E901C2D4E9033552
:1014C00061691A432A431143ACF101021143C1611E
:1014D00000200121606284F82010B0BD10B586B0F4
:1014E000006846F60002C4F2000200219042CDE9F5
:1014F0000411CDE90211019134D046F20041C4F249
:101500000001884277D140F23C41C2F200010A68F2
:1015100043F64000C4F20200531C0B6052B9002194
:101520000091016841F000710160016801F00071F3
:10153000009100990021009150F8101C142441F0F2
:10154000080140F8101C50F8100C00F00800009042
:1015500000980320019040F20040C4F2020000F520
:10156000006035E043F64000C4F2020000910168DB
:1015700041F080610160016801F080610091009993
:1015800040F23C41C2F200010A68531C0B6052B9A0
:1015900000210091016841F000710160016801F0D3
:1015A0000071009100990021009150F8101C402416
:1015B00041F0020140F8101C50F8100C00F002003D
:1015C000009000986020019040F20040C4F20200B8
:1015D0000221029100210391032104910921059127
:1015E00001A900F077FA20460521002200F000FF53
:1015F000204600F0EDFE06B010BD00007047000070
:1016000080B58AB003AA01AB0021FFF723FD039840
:10161000A0F20121062920D80138C1B2BDF804206A
:10162000890051FA80F042F2722112BAC2F200012E
:10163000120C31F8103021F8102001EB4000BDF8F9
:101640000610BDF8082009BA090C418011BA9DF8AE
:101650000A20090C0381818082710AB080BD0000DC
:10166000704700007047000070470000B0B50446A6
:1016700090F8200001281DD1022084F82000206865
:10168000016821F00101016000F008FB054600BF80
:1016900020684068C00713D000F000FB401B0B28F7
:1016A000F6D3606A40F400306062052084F82000C0
:1016B0000120B0BD606A40F4002060620120B0BD2E
:1016C00000206062B0BD000070470000704700005D
:1016D000704700007047000070470000704700002E
:1016E00070470000F0B581B004460020009040F241
:1016F0007000C2F200000268D4E9166048F2B51327
:1017000037680821C1F64E3381403942A2FB0325D8
:101710000CD0226813685B0708D5136823F0040314
:101720001360B160616D41F001016165012181408B
:10173000394208D022685269120604D5B160616D41
:1017400041F00201616504218140394208D02268DC
:101750001268920704D5B160616D41F004016165C2
:1017600010218140394217D020680268120713D532
:10177000B16002680168520308D4C90508D4016841
:1017800021F008010160216C21B905E008033FD474
:10179000216C09B120468847E16D202000FA01F252
:1017A0003A4241D020680368DB063DD5B26094F828
:1017B00035300268052B1BD122F016020260426907
:1017C00022F080024261226C0AB9A26C1AB102684E
:1017D00022F0080202603F208840B060012084F8B7
:1017E0003500216D0020002984F8340052D157E0E3
:1017F0000168520310D4C90512D4016821F0100108
:101800000160012084F83500002084F8340007E0EE
:10181000A16C0029BED1BFE7080301D4616C00E0D0
:10182000E16B09B120468847606DC8B3606DC007A1
:101830002ED0052084F835002068A90A026822F01D
:1018400001020260009A01328A4200921AD80268AC
:10185000D20717D0009A01328A42009212D8026849
:10186000D2070FD0009A01328A4200920AD8026849
:10187000D20707D0009A01328A42009202D8026849
:10188000D207DFD1012084F83500002084F834002D
:10189000E16C29B1204601B0BDE8F040084700BF27
:1018A00001B0F0BD2DE9F041044600F0F7F9002C3D
:1018B0004ED00546022084F835000020216884F8C7
:1018C0003400086820F0010008600868C00708D0EC
:1018D00000F0E4F9401B05286CD821680868C007AF
:1018E000F6D1086848F23F02CFF21002D4E9013580
:1018F000024004F10C0E9EE8C1511A432A431043E2
:101900003043384340EA0800626A40EA0C00042A87
:1019100040EA0E0320D1D4E90A5E206B4EEA0302AE
:10192000104308604869BEF1000F20F0030040EA50
:10193000050040F0040C15D0B8F5005F42D0B8F1B6
:10194000000F51D1022D52D0012D47D055B94EE094
:101950000120BDE8F08100BF0B60486920F007005E
:1019600040EA020C6FF00F004AF6AB2250FA81F009
:10197000CAF6AA22A0FB02231A094DF6CE43C0F6EE
:1019800000039A5C40F2FF335F284FF03F00C1F83C
:1019900014C021EA030100FA02F088BF0431C4E94F
:1019A00016128860002301220020636584F8352028
:1019B000BDE8F081032220230320636584F83520ED
:1019C000BDE8F081032DCDD8012240230120DFE8BE
:1019D00005F0030E030500BFE7E700BFAEF1C070DE
:1019E000B0FA80F0400904E0032D04D3BAD1CEF35D
:1019F00000600028B6D0012240230120636584F8EE
:101A00003520BDE8F0810000B0B5044600F046F98D
:101A1000054640F20000C2F200000078611C18BFC9
:101A2000044400BF00F03AF9401BA042FAD3B0BD15
:101A300010B5012824D0202814D010283CD140F221
:101A4000FC20C2F20000417841F001014170817830
:101A500041F001018170C07870B3BDE8104008F01A
:101A6000B5BB00BF40F2FC20C2F20000017841F09B
:101A700001010170C078F8B1BDE8104008F0A6BBC4
:101A80000AF0DCFA012817D040F2FC24C2F200046C
:101A9000A06804F1100109F06BFB2069002808BF61
:101AA00010BD4EF60450CEF200004FF080510160A0
:101AB000BFF34F8FBFF36F8F10BD000043F614418B
:101AC000C4F201010A68024214BF08607047FFF7C0
:101AD000AFBF00002DE9F04F82B000F13E4241F669
:101AE000004502F1FF77C4F2020508224FEAB7264B
:101AF000A84208BF0722072E38BF4FEAB7224FF08F
:101B0000010A002400274FF00008009208E000BFFF
:101B1000023708F10108202F04F1040400F0B4801A
:101B20000E680AFA08F916EA090FF1D0D1F804A0F4
:101B30000AF0030BABF10106012E17D803228668C9
:101B400002FA07FECA6826EA0E06BA4032438260ED
:101B50004268CAF3001522EA090205FA08F54FEABD
:101B6000480C6FEA0E062A4342600BE00322BA409B
:101B7000D643BBF1030FBC4604D1BC464FF0030B68
:101B800022E000BFC2688D68324005FA0CF52A4396
:101B9000BBF1020FC26017D16FF0030202EA5802D4
:101BA000024404F01C030F25D2F820E005FA03FAE2
:101BB0000D692EEA0A0E05FA03F343EA0E031362D7
:101BC000D1F804A00AF0030B02680BFA0CF33240C0
:101BD0001A431AF4403F4FF0010A026098D00022E5
:101BE00043F644030192C4F202031A6843F6004E1E
:101BF00042F480421A601A68C4F2010E02F4804274
:101C00000192019A28F003024FF6084C7244CFF675
:101C1000FF7C52F80C3004F00C060F25B540AB43A6
:101C2000009D05FA06F6334342F80C30DEF8082032
:101C30004B6842EA090643F60C4CDD0258BF22EA23
:101C40000906CEF80860C4F2010CDCF800209D0201
:101C500042EA090658BF22EA0906CCF80060DEF81D
:101C600004209D0342EA090658BF22EA0906CEF87D
:101C70000460DEF80020DB0342EA090658BF22EACE
:101C80000906CEF8006043E702B0BDE8F08F00001F
:101C9000002A08BF090481617047000046F6D87029
:101CA000C2F200000068704770B5B8B3044690F8FF
:101CB0003D0028B9002084F83C00204600F08AFA54
:101CC000242084F83D002068016821F001010160B2
:101CD000016841F400410160016821F400410160A4
:101CE00001F0D0FC48F28041C0F21E0140F6001322
:101CF000D4F804E088424FF00001C0F23D0348F2FE
:101D0000A16C4FF0000238BF01219842C0F2010CD3
:101D100038BF0122E64538BF0A460AB1012070BD2E
:101D20004DF68361C4F21B31A0FB01122168950CB2
:101D30004B684FF4967623F03F0343EA9243754392
:101D400044F6D3564B60C1F262060B6AA5FB0656F9
:101D5000B50923F03F03E64538BF950C6A1C1A43CA
:101D60000A62CA6948F2A0664CF6FF73C0F2010627
:101D7000B64522EA03020BD801384FEA4E03B0FB06
:101D8000F3F001306FF31F30042898BF04201EE0E9
:101D9000A368013863B119230EFB03F3B0FBF3F022
:101DA00001306FF31F3078B100F5804008E000BFCC
:101DB0000EEB4E03B0FBF3F001306FF31F3028B190
:101DC00000F5004003E000BF012000E001201043C7
:101DD000C8610868D4E9072320F0C0001043184305
:101DE0000860886848F2FF3204F10C0690434CCE3C
:101DF00018431043A5698860C86820F0FF0030438D
:101E00002843C860086840F00100086000202021D5
:101E1000206484F83D10206384F83E0070BD00000B
:101E20002DE9F04784B0994616460F460446FFF761
:101E300035FF94F83D10202927D10546206800BFC2
:101E4000816989071CD5FFF729FF411B20681A29E2
:101E5000F6D381698907F3D500202021206384F817
:101E60003D1084F83E00206C04F13C0A40F0200054
:101E70002064022000218AF8001004B0BDE8F08739
:101E8000A2461AF83C1F012904D1022004B0BDE883
:101E9000F08700BF01228AF800200368DDE90D18F1
:101EA0000C9ADB0703D1036843F001030360036866
:101EB00023F400630360222084F83D00402084F86E
:101EC0003E000020206462626185608D3946208575
:101ED0000020CFF6FF70E062204632464B46CDF838
:101EE0000080019502F00AFB20B1012004B0BDE89A
:101EF000F08700BF208DA8B102282BD0012835D152
:101F000021680A6822F480620A60002203924A690A
:101F100003928A690392039A0A6842F400720A6083
:101F20002CE000BF00200390206841690391816983
:101F300003910399016841F400710160202084F845
:101F40003D00002084F83E0000218AF8001004B013
:101F5000BDE8F08721680A6822F480620A600A6896
:101F600042F400620A600022039202E00021039121
:101F700021684A6903928969039103990427C0F291
:101F800001070CE010690870606A218D0130606201
:101F9000481E2085618D013961850104CED080B253
:101FA00003280FD802284AD001282DD120464146C7
:101FB0002A4602F04DFD002897D12068616A006929
:101FC000E1E700BF204641462A4602F041FD0028D5
:101FD0007FF48BAF2068616A00690870606A2268CC
:101FE000411C208D616201382085638D013B638532
:101FF00053695B07D1D580B20328C3D1106820F4A0
:1020000080601060BEE700BF20463946002243468C
:10201000009502F0C3FB00287FF467AF2068616A77
:10202000026822F48062026000690870606A218D93
:1020300001306062481E2085608D01386085204631
:10204000394600224346009502F0A8FB00287FF4A1
:102050004CAF2068616A026842F400720260006955
:102060000870606A2268411C6162218D01392185F6
:10207000618D013961851169417085E72DE9F04372
:1020800083B0994616460F460446FFF707FE94F8BC
:102090003D10202920D10546206800BF81698907AD
:1020A00016D5FFF7FBFD411B20681A29F6D381697D
:1020B0008907F3D500202021206384F83D1084F89F
:1020C0003E00216C41F02001216484F83C0003E0D3
:1020D00094F83C10012903D1022003B0BDE8F0833D
:1020E000012284F83C200368DDE90B180A9ADB071B
:1020F00003D1036843F001030360036823F4006322
:102100000360212084F83D00402084F83E00002038
:10211000206462626185608D394620850020CFF69B
:10212000FF70E062204632464B46CDF800800195B4
:1021300002F070FA20B1012003B0BDE8F08300BFC7
:10214000208D98B9204641462A4602F0C7FA88B346
:10215000206C0428EFD12068016841F4007101600F
:10216000012003B0BDE8F0830004EBD020464146D7
:102170002A4602F0B5FC0028EAD1616A22680846C6
:1021800010F8013B1361238D6062581E2085678D16
:10219000013F678557697F07E6D50704E4D0487893
:1021A0001061881C6062981E2085618D01396185EF
:1021B000DAE700BF2068016841F400710160202067
:1021C00084F83D00002084F83E0084F83C0003B011
:1021D000BDE8F0832DE9F04786B0006845F600477A
:1021E000C4F20007B84203D006B0BDE8F08700BFD4
:1021F000002643F630050196C4F20205286801ACBA
:1022000040F00400286028684FF0120800F0040035
:1022100001900198019628684FF0030940F00100F1
:10222000286028684FF0040A00F00100019001982E
:102230004FF40070019007F5D6302146CDE90286B3
:10224000CDF81090CDF814A0FFF744FC4FF4807047
:10225000CDE9010803A880E8400607F5D230214601
:10226000FFF738FC0096286940F4000028612869CF
:1022700000F400000090009806B0BDE8F087000070
:1022800040F2000046F6D871C2F20000C2F200012E
:1022900000780A68104408607047000080B543F673
:1022A0000040C4F20200016841F40071016001685D
:1022B00041F480610160016841F480710160032094
:1022C00000F0C2F80F2000F005F800F05FF80020E1
:1022D00080BD000070B586B0002543F64001019531
:1022E000C4F202010A68044642F001020A60096869
:1022F00001A801F0010101910199694601F09CF9E1
:10230000049E002E18BF012601F0BCF94DF6836132
:10231000B040C4F21B31A0FB01014FF0FF3000EBD5
:10232000914142F22820C2F200004FF0804240F278
:10233000E733C0E90021C0E902530561856101F07E
:1023400041FE054610B1284606B070BD42F2282075
:10235000C2F2000001F080FE05460028F3D11C20E7
:1023600000F036F80F2C0DD81C2021460022002545
:1023700000F03EF840F20400C2F20000046028467B
:1023800006B070BD0125284606B070BD82B00020A1
:1023900043F640010190C4F202014A6842F48042CF
:1023A0004A604A6802F480420192019A00900868EB
:1023B000002240F08050086008680F2100F0805033
:1023C000009000986FF0010002B000F011B800001A
:1023D000002848BF704700F01F01012202FA01F1F6
:1023E0004EF200124009CEF2000242F8201070476F
:1023F00010B54EF60C5CCEF2000CDCF80030C3F3E6
:10240000022E8EF00704042C28BF0424BEF103031F
:102410004FF0FF3E0EFA04F438BF0023A143994069
:102420000EFA03F39A43114300F00F02043A624498
:1024300009010C3200F16043B0F1FF3FC8BF03F562
:102440006442117010BD00004EF60C51CEF2000136
:102450000A684FF6FF031A4060F30A2242F08060D8
:1024600040F0FD700860704770470000026800206F
:10247000516270472DE9F043D0F80090D9F824005C
:10248000A1B1D9F82830B1F1010800EB13435DD0B8
:10249000A8F10100C0B2032808F0030C0ED24FF0DF
:1024A000010E0027BCF1000F33D14FE040EA02409B
:1024B000C9F828000020BDE8F08300BF08F0FC0E3A
:1024C00009F1F404002009F5827500BF54F8107F6B
:1024D000064603EB174046F00103DBB246F0020765
:1024E00055F82330FFB255F8277000EB134000EB8E
:1024F000174346F00300C0B255F82010301DC7B294
:10250000774503EB1143E1D106F1050EBCF1000F55
:102510001CD009EB8700D0F80401BCF1010F03EBDC
:10252000104313D05FFA8EF009EB8000D0F804015D
:10253000BCF1020F03EB104308D00EF10100C0B252
:1025400009EB8000D0F8040103EB104343EA02409A
:1025500009EB8801C1F804010020BDE8F083000008
:10256000D0F8E00405F0D8B801EBC102D0F8E034AF
:1025700000EB8200026A184605F030B801EBC10298
:10258000D0F8E03400EB8200D0F86022184605F065
:1025900083B80000D0F8E00405F0C0B810B50446D8
:1025A000080601F00F0000EBC00104EB810205D426
:1025B00002F51571002382F8553203E0012302F180
:1025C0001401537594F894240870012A04BF022062
:1025D00010BD2068012284F8942405F0B3FE002089
:1025E00084F8940410BD0000B0B50279044601F0EF
:1025F0000F00904284BF0120B0BD09060AD400EB51
:10260000C00104EB810202F51571002382F85532F6
:1026100008E000BF00EBC00104EB8102012302F1DE
:102620001401537594F894240025012A8D700870C4
:1026300004BF0220B0BD2068012284F8942406F073
:102640006FF9284684F89454B0BD000001F00F01E2
:1026500001EBC10100EB8100D0F868027047000077
:10266000B0B50546080601F00F0000EBC00105EB10
:10267000810C05D40CF5157100248CF8554204E04A
:1026800001240CF114018CF815404C786FF3DF2213
:10269000002C08708A600B7118BF4883022B04BF9E
:1026A0000020487195F89404012804BF0220B0BDB1
:1026B0002868012285F8942405F0B2FC002085F8F2
:1026C0009404B0BD10B501F00F0404EBC40100EB9D
:1026D000810E4FF0000CCEF868C28EF855C290F80B
:1026E00006C0CEF86022CEF86432BCF1010F8EF83D
:1026F000544208BFCEF8702200680EF5157162468C
:1027000006F056F9002010BDB0B50446007901F07E
:102710000F05854284BF0120B0BD08060AD401EB35
:10272000C10004EB800000F51571002280F85522ED
:1027300008E000BF05EBC50004EB8000012200F1BA
:102740001401427594F89404012201288A700D70D6
:1027500004BF0220B0BD206884F8942406F008F974
:1027600025B1002084F89404B0BD00BF2068A17991
:1027700004F29C4206F0A6F8002084F89404B0BD50
:1027800080B501F00F0C0CEBCC0100EB810E714613
:1027900001F814CF4FF0000CC1F814C04FF0010C39
:1027A00081F801C090F806C0CA60BCF1010F0B614E
:1027B00008BFCEF830200068624606F0F9F8002025
:1027C00080BD00002DE9F04F8BB005688246284699
:1027D00006F010FB10B10BB0BDE8F08FDAF8000086
:1027E00006F036FB0028F6D0D5F80808C0F30D2116
:1027F000DAF80000CAF8D41406F02AFB0146DAF829
:102800000000890703D5416901F00201416105F526
:102810000061039106F01CFB0146DAF80000C906CE
:1028200005953BD5816921F0100181612C6AC4F3C3
:102830004340062804F00F0518D0022827D147F698
:10284000F07014EA000622D005EBC5000AEB800701
:10285000D7F8601234090598224606F0FDFAD7F839
:10286000600200EB1610C7F8600207E005980AF254
:102870009C41082206F0F0FAC4F30A1405EBC500E7
:102880000AEB8000D0F868122144C0F86812DAF828
:102890000000816941F010018161059D06F0D8FAC0
:1028A0000003CDF828A040F1ED80DAF8000006F032
:1028B000ADFA002800F0E68006460AF29C400AF5D0
:1028C0001D784FF430644FF0000B09901BE000BFFF
:1028D0002819022181605FEA8A6042BF28192021FD
:1028E00081605FEA8A40DDF828A042BF28194FF4D2
:1028F000005181600BF1010B760804F1200408F10E
:10290000240800F0BF80F007F4D0DAF800005FFA86
:102910008BF9494606F094FA8246C00762D028191E
:10292000012181600A9F38682118036C8A68BF7989
:10293000012F29D1170735D4970600F19B8012F09B
:10294000280F4FD143F20B07C4F65477BB4202D392
:1029500012F400422FD1D8F800200969BBF1000F12
:102960006FF3DF41A2EB010148F80C1C35D10A9B43
:10297000D3F86422002A00F08380D3F86002084470
:10298000C3F8600229E000BF43F20B07C4F6547796
:10299000FF37BB4216D110040DD4900644BF20204F
:1029A00088601AE043F20B00C4F65470834219D3D6
:1029B00012F4004016D04FF4004088605FEA0A70BD
:1029C00013D437E0BBF1000F07D10A99D1F8641294
:1029D00019B90021099A05F075FF0A984946FFF7D1
:1029E000CDFD00BF5FEA0A7024D528190821816057
:1029F0000A9843F20B020068C4F65472056C204436
:102A00008168571EBD4205D911F400411CBF4FF427
:102A1000004181600A9800F01DFDBD42059D09D965
:102A20000A988079012805D10A98099A006801213D
:102A300005F048FF5FEACA6042BF28191021816093
:102A40005FEA8A707FF547AF6869000604D503998D
:102A5000486840F48060486018F81D0C01287FF435
:102A600037AF002008F81D0C0A98494600F042FBD9
:102A70002EE700BF202088605FEA0A70B5D4D9E74E
:102A80000121A7E7DAF8000006F0E2F9039E40030F
:102A900040F1DE80DAF8000006F0B0F9002800F01E
:102AA000D78005F5106104910AF29C414FF0000BAC
:102AB000029104E040080BF1010B00F0C980C1074E
:102AC000F8D00690DAF800005FFA8BF1099106F071
:102AD000A5F9049F0446C00728D00BF00F00716BC6
:102AE000012202FA00F021EA0000706307EB4B10AC
:102AF00082609AF80600012814D10BEBCB000AEB98
:102B00008000D0E90712BBF1000F1144016209D126
:102B1000DAF8240030B9DAF80000029A012105F051
:102B2000D1FE00BF09995046FFF71EFD200742BFA6
:102B300007EB4B1008218160E00642BF07EB4B100A
:102B400010218160600642BF07EB4B10402181607D
:102B5000A00715D52846594606F0DEF80BEBCB004A
:102B60000AEB800010F8171F012905D10021017020
:102B70000999504600F0BAFA07EB4B100221816028
:102B80002006069896D50BEBCB010AEB8104A146F3
:102B900059F8242FC84658F8047FBA428AD3DAF885
:102BA000005054F81C3FD11B994288BF1946089524
:102BB00005EB4B1CDCF818590331ADB2B5EB910FA6
:102BC00028BFBA4204D8059DBA423FF673AF33E03E
:102BD00004F1040ADAF800100CF51065079400BF40
:102BE0000A98D41B9C42867988BF1C46DDE90802FE
:102BF000A3B2009606F0DCFBDAF80000E31C011932
:102C0000D8F80000CAF800100719C8F80070AA69BF
:102C100096B2D9F80020B6EB930F28BFBA4203D979
:102C200007980368DCE700BFDDF828A0039EDDE914
:102C30000550BA423FF63EAF089F0BF00F02D7F89F
:102C40003418012303FA02F29143C7F8341831E72C
:102C5000DAF8000006F0FCF8002823D4DAF80000C7
:102C600006F0F6F800053AD4DAF8000006F0F0F8BD
:102C7000C00444D5D5F80408102120F00100C5F89F
:102C80000408DAF8000006F047F89AF80400002873
:102C900000F0F580411E032900F0030C32D2002120
:102CA0009CE000BF706820F0010070609AF8CC04CE
:102CB000012807D100208AF8CC0450460021FFF7F4
:102CC000D3FB02E0504600F0A9FBDAF800004169AE
:102CD00001F00041416106F0BBF80005C4D5B068C1
:102CE000C00702D0504600F0DDFBDAF80000416971
:102CF00001F40061416106F0ABF8C004BAD4DAF81F
:102D00000000EAE000F0FC0E05F536634FF6A05631
:102D10004FF6C0554FF6E0544FF6006000214FF6D5
:102D20007F37CFF6FF76CFF6FF75CFF6FF74CFF67D
:102D3000FF7000BFA3F5187297609A59043122F40E
:102D400000129A5143F8587C53F8602C8E4522F4B7
:102D5000001243F8602C53F8602C42F0006243F8F4
:102D6000602CA3F5107297605A5922F400125A5140
:102D700043F8387C53F8402C22F4001243F8402CDE
:102D800053F8402C42F0006243F8402CA3F508723F
:102D900097601A5922F400121A5143F8187C53F81C
:102DA000202C22F4001243F8202C53F8202C42F05F
:102DB000006243F8202CA3F5007297601A5822F4A1
:102DC00000121A509F601A6822F400121A601A68E2
:102DD00042F000621A6003F18003ABD1059D039EAF
:102DE000BCF1000F4BD005F5106000EB41124FF61F
:102DF0007F334F019360C65905F5306226F4001603
:102E0000C65102EB4116B360D659BCF1010F26F44E
:102E10000016D651D65946F00066D651039E2ED0E4
:102E20004F1C00EB47157E01AB60855902EB47173D
:102E300025F400158551BB609359BCF1020F23F4B2
:102E400000139351935943F000639351039E16D09E
:102E5000023100EB41174FF67F364B01BE60C75879
:102E600027F40017C75002EB41108660039ED0582C
:102E700020F40010D050D05840F00060D050F069DD
:102E800040F00110F0619AF80F0048B1D6F88400C4
:102E900040F00B00C6F8840006F1440007E000BFD4
:102EA000706942F22B010843706106F1100001685D
:102EB0000AF29C4241F00B010160306820F4FE6090
:102EC0003060DAF800009AF8061005F0FBFCDAF83A
:102ED0000000416901F48051416105F0B9FF0146EC
:102EE000DAF8000089041AD505F0E0F8DAF80000F5
:102EF00005F072FFDAF800408AF8070000F0BCFB2A
:102F00009AF807200146204606F0C2F9504600F024
:102F10006FFADAF80000416901F40051416105F0EF
:102F200097FF000706D4DAF8000005F091FF0006CD
:102F30000DD435E0504600F075FADAF8000041692A
:102F400001F00801416105F083FF000628D50599CD
:102F5000886920F0800088619AF8040002281FD355
:102F60000AF27B24012504E00135854204F12404A2
:102F700016D221780129F7D105F00F0000EBC0002F
:102F80000AEB80022806DAF8000002F1140158BFAB
:102F900002F5157105F030FE9AF80400E4E700BF71
:102FA000DAF8000005F054FFC0024BD4DAF8000054
:102FB00005F04EFF059D80027AD59AF8040002289C
:102FC00027D3013805F532610AF51F72012305E0A8
:102FD000013801F1200102F124021AD00F6816789D
:102FE000012EF5D1B7F1FF3FF2DCDAF8D46486EABE
:102FF0001747FF07ECD102F8013CAF6947F08007A3
:10300000AF616F693F06E3D40399486840F40070EC
:103010004860DAF80000416901F40011416105F0EF
:1030200017FF40004AD55046FFF79AFADAF8000039
:10303000416901F08041416105F00AFF40077FF5D9
:10304000CAAB42E09AF80400022825D305990AF198
:103050003C0501F512640126012705E00137203403
:10306000874205F1240517D221682A78012AF5D173
:10307000B1F1FF3FF2DC07F00F0000EBC0000AEBFC
:103080008001DAF80000143105F8016C05F0B4FD98
:103090009AF80400E2E700BFDAF80000416901F4A1
:1030A0008011416105F0D4FE059D80023FF585AF9A
:1030B000DAF8000005F0CCFE4000B4D4DAF80000E5
:1030C00005F0C6FE40077FF586ABDAF800004468DD
:1030D000610704D55046FFF75DFADAF80000416851
:1030E000214341600BB0BDE8F08F0000D0F8E00450
:1030F00004F06EBBD0F8E00404F07EBBF0B581B004
:10310000002800F025810446056890F8950428B948
:10311000002084F89404204600F02AF90320B5F139
:10312000A04F84F8950404BF0020A071206805F02A
:10313000C1FB94E80F00267C009604F0C7FF00282E
:1031400040F003812068002105F0DCFE002840F0FB
:10315000FC802179002900F0F180A1F1010C01F03F
:10316000030EBCF1030F4FF0000045D301F0FC0546
:1031700004F19A02012600235F1C02F8627C22F807
:10318000487C9F1C02F8863C22F86C3C02F83E7C8E
:1031900022F8247CDF1C043302F8856C02F8820CD0
:1031A00042F87E0C42F87A0C42F8760C02F8616C18
:1031B00002F85E0C42F85A0C42F8560C42F8520CD7
:1031C00002F83D6C02F83A0C42F8360C42F8320C28
:1031D00042F82E0C02F8196C02F81A7C178002F8DB
:1031E000160C42F8120C42F80E0C42F80A0CAB42D4
:1031F00002F19002C0D11846BEF1000F2CD000EBB6
:10320000C00204EB820501230022BEF1010F6B75A1
:103210002875E8852A76C5E907226A621CD0451C14
:1032200005EBC50604EB8606BEF1020F7375357516
:10323000F5853276C6E9072272620DD0023000EBC6
:10324000C00204EB820201231075D0850020537563
:103250001076C2E90700506200296FD0BCF1030F5D
:103260004FF0000233D301F0FC0004F53471002369
:103270005F1C01F8587C9F1C01F87C3C01F8347CF1
:10328000DF1C043301F87B2C01F8782C41E91D2266
:1032900041F86C2C01F8572C01F8542C41E9142208
:1032A00041F8482C01F8332C01F8302C41E90B226D
:1032B00041F8242C01F80F2C01F8107C01F80C2C9B
:1032C00041E9022241F8902B8342D1D11A46BEF146
:1032D000000F33D002EBC20004EB80010020BEF1EE
:1032E000010F81F8550281F8542281F85802C1E992
:1032F0009700C1F8640221D0511C01EBC10304EB1B
:103300008303BEF1020F83F8550283F8541283F849
:103310005802C3E99700C3F864020FD0901C00EB79
:10332000C00104EB8101002281F8552281F854028A
:1033300081F85822C1E99722C1F8642294E80F006D
:10334000277C009705F060F830B1022084F89504DE
:103350000125284601B0F0BD00250120657484F8E0
:103360009504206805F040F8284601B0F0BD000043
:10337000B0B586B00068B0F1A04F01D006B0B0BDC6
:10338000002543F630040195C4F20204206801A927
:1033900040F001002060206800F0010001900198D9
:1033A0004FF4C05001900220CDE9020503200490A3
:1033B0000A2005900020C4F20200FEF78BFB606833
:1033C000052140F08000606000956069002240F4B3
:1033D00080406061606900F4804000900098432064
:1033E000FFF706F84320FEF7F3FF06B0B0BD00007C
:1033F00010B50446C07928B1022818BFFDF74AFD70
:10340000012100E00021D4F8E00404F07BFAD4F8B4
:10341000E004BDE8104004F029BA0000D0F8E00450
:1034200004F058BAD0F8E00404F05EBA10B50446CF
:1034300090F89404012804BF022010BD012084F8F4
:1034400094046174206805F011FF002084F894044E
:1034500010BD0000D0F8E02400F29C41104604F0BA
:1034600067BA000010B5044690F89404012804BF20
:10347000022010BD2068012184F89414C168490617
:1034800006D5617B012903D1816B41F480318163D1
:1034900005F03AFC206804F097FF002084F89404BB
:1034A00010BD000010B50446D0F8E00404F096FA10
:1034B0002068D0F8001E41F00101C0F8001EE07A3B
:1034C000002808BF10BD4EF61050CEF20000016873
:1034D00041F00601016010BD2DE9F041002800F027
:1034E0008B8043F60808C4F202080446D8F8F803B3
:1034F0000D4600F00700884207D288F8F853D8F844
:10350000F80300F00700A84276D12068810717D59C
:10351000410705D5D8F8001041F4E051C8F8001073
:10352000010705D5D8F8001041F46041C8F8001033
:10353000D8F80010A26821F0F0011143C8F800107B
:10354000C0073FD1D8F8F80300F00700A84207D918
:1035500088F8F853D8F8F80300F00700A8424BD1D8
:103560002068410707D5D8F80010E26821F4E0513F
:103570001143C8F80010000708D5D8F800002169E9
:1035800020F4604040EAC100C8F8000000F08EF866
:10359000D8F800104DF6A442C1F30311C0F60002A2
:1035A000515C40F2700220FA01F140F20400C2F2D4
:1035B00000000068C2F200021160FEF78BFE0020DE
:1035C000BDE8F0816068811E022907D258F8081C06
:1035D00089015CBF0120BDE8F08111E0012807D11D
:1035E00058F8081C89035CBF0120BDE8F08107E0A2
:1035F00058F8081C890703D40120BDE8F08100BFFA
:10360000D8F8001021F003010843C8F80000FEF7C5
:1036100045FB064641F28837D8F80000616800F0A3
:103620000C00B0EB810F8DD0FEF738FB801BB84249
:10363000F2D90320BDE8F0810F22026043F60802B0
:10364000C4F20202136803F003034360136803F03B
:10365000F0038360136803F4E053C360D2F800C042
:103660004FF4E05303EADC030361D2F8F80300F0FF
:10367000070008607047000040F27000C2F20000CE
:103680000068704740F2700043F60801C2F2000083
:10369000C4F20201006809684DF6B442C1F3822108
:1036A000C0F60002515CC8407047000010B543F6F8
:1036B0000404C4F20204606800F00C0008280BD077
:1036C000042819BF42F20040C0F2F40041F6003075
:1036D000C0F2B70010BD00BF20682168236849020E
:1036E00041F60031C0F2B70100F03F02C3F3881089
:1036F0005CBF42F20041C0F2F401A1FB00010023D3
:10370000FCF7D2FD21680222C1F3014102EB410125
:10371000B0FBF1F010BD00002DE9F04182B00028AF
:103720006AD00446007843F60006C007C4F20206D9
:103730000BD0B06800F00C00042840F0A180306885
:10374000800302D56068002856D0207880071AD5FB
:10375000B06810F00C0F09D0B06800F00C00082819
:1037600040F0A8807068400200F1A48030688007B3
:1037700002D5E06801283FD13068216920F0F800C7
:1037800040EAC10030602078000739D42078400733
:103790004ED4A5695DB3B06800F00C00082840F075
:1037A000BD80012D28D07068E16900F480028A4252
:1037B00022D1216A00F03F028A421DD147F6C07132
:1037C000626A0140B1EB821F16D1A26A0023CFF6D4
:1037D000FF7303EBC23200F440316FF30F029142EA
:1037E0000AD1E16A00F07060B0EB016F04D10020F3
:1037F00002B0BDE8F08100BF012002B0BDE8F08159
:103800006069002840F20000C4F2472076D0012110
:10381000C0F8801EFEF742FA054600BF706F8007B1
:10382000B4D4FEF73BFA401B0228F7D9DDE000BF15
:10383000306C10F080580AD100200190306C40F0BC
:1038400080503064306C00F080500190019847F255
:103850000007C4F200073868C00541D4386840F456
:1038600080703860FEF71AFA054600BF3868C00558
:1038700036D4FEF713FA401B0228F7D9B5E000BF93
:10388000B06800F00C00082803D1706840023FF5D2
:1038900056AF6068B0F5803F07D0B0F5A02F40F07C
:1038A0008D80306840F480203060306840F4803093
:1038B00030608DE0E068002852D00020C4F247203C
:1038C00001210160FEF7EAF9054600BF3068800774
:1038D0003FF552AFFEF7E2F9401B0228F6D984E02B
:1038E000A068012805D005284ED1306F40F00400B3
:1038F0003067306F40F0010030674FE00021C0F8C2
:10390000801EFEF7CBF90546706F80077FF53EAF4E
:10391000FEF7C4F9401B0228F6D966E00027C4F27E
:10392000472700203866FEF7B9F9022D05460BD16E
:10393000306880015ED5FEF7B1F9401B02284FF0D8
:103940000300F5D954E700BF306880017FF54FAF21
:10395000FEF7A4F9401B02284FF00300F4D947E713
:103960000020C4F2472000210160FEF797F90546C8
:10397000306880077FF507AFFEF790F9401B0228FB
:103980004FF00300F4D933E7316F002821F0010133
:103990003167316F21F0040131674DD0FEF77EF9B8
:1039A000054641F2883700BF306F800756D4FEF7D6
:1039B00075F9401BB842F7D917E000BF31680028FD
:1039C00021F480313160316821F4802131604FD0A1
:1039D000FEF764F9054600BF306880033FF5B5AED9
:1039E000FEF75CF9401B6428F6D9032002B0BDE85D
:1039F000F08100BF04F11C052FCD08430021CFF654
:103A0000FF7140EA821001EBC3316FF30F0140EA0E
:103A100005600843706001203866FEF73FF90446F0
:103A2000306880013FF5E3AEFEF738F9001B02284D
:103A30004FF00300F4D9DBE6FEF730F9054641F21A
:103A4000883700BF306F800708D5FEF727F9401B85
:103A5000B8424FF00300F5D9CAE600BFB8F1000F35
:103A60007FF497AE306C20F08050306491E600BF58
:103A7000FEF714F9054600BF306880037FF565AE98
:103A8000FEF70CF9401B64284FF00300F4D9AFE6B1
:103A900070B538B10446406A30B10020206104F1AD
:103AA000140007E0012070BD6068B0F5827F03D08C
:103AB00004F11C00002101600026A66294F8510068
:103AC00020B9204684F8506000F03CF8022084F8C9
:103AD000510094E80F0001F48271056802F4044279
:103AE00025F040050560114403F400622369114488
:103AF00003F002026369114403F00102A369E5695E
:103B0000114403F40072114405F03802256A11448F
:103B100005F08002A56A114305F4005211430160CB
:103B2000626A042101EA134102F01002114441606B
:103B3000C16921F40061C1610120666584F851000A
:103B4000304670BD2DE9F04F85B00446006843F261
:103B50000007C4F20107B84202D005B0BDE8F08FFB
:103B6000002643F630000096C4F2020041696D461B
:103B700041F48051416141694FF0020901F48051E3
:103B800000910099009601684FF0010A41F002018E
:103B9000016001684FF0030B01F0020100910099F0
:103BA000009601684FF0050841F0010101600068CE
:103BB000294600F00100009000981820009007F5B9
:103BC0005440CDF80490CDF808A0CDF80CB0CDF855
:103BD0001080FDF77FFF80208DE8010ECDF810806A
:103BE00046F2404807F550402946C4F20208FDF766
:103BF00071FF41F69035C2F200054FF440304FF0AE
:103C0000C0674FF48069C5E908062846C5E9008702
:103C1000C5E90266C5E90496C5E90666FDF742FEF8
:103C2000002818BFFDF736F9E564AC6341F6F035BE
:103C300008F11800C2F200054021C5E9000705F1AE
:103C4000080080E842024FF40030C5E90806284623
:103C5000C5E90566EE61FDF725FE002818BFFDF7F2
:103C600019F9A564AC6305B0BDE8F08F2DE9F04308
:103C700083B01E4615460F460446FEF70FF894F82B
:103C800051108146012909D1002F4FF0010018BFC2
:103C9000002D0FD103B0BDE8F08300BF6068B0F520
:103CA000827F0DD1A06800284FF0020008BF0429D0
:103CB000F0D1E9E7002EEDD094F85000012803D1AF
:103CC000022003B0BDE8F083012084F8500094F88E
:103CD0005100002104281CBF052084F851006165B3
:103CE000A563E687A6872763E6862068A686216403
:103CF00061640168490603D4016841F04001016034
:103D00006168731EE268B1FA81F1B3FA83F3DDF8FA
:103D1000288049095B09B2F5006F41EA030165D1CA
:103D200031B137F8021BC1602763E08E0138E086AD
:103D3000012518F1010032D102E000BFFDF7AEFF0E
:103D4000E08E18B9E08F002800F0B8802068816804
:103D500089070CD5E18E51B1012D08D1216B0025C9
:103D600031F8022BC2602163E18E0139E18681685E
:103D7000C907E3D0E18F0029E0D0C068A16B01251D
:103D800021F8020BA163E08F0138E087D6E700BF7E
:103D9000FDF784FFA0EB0900404580F0A580E08E90
:103DA00018B9E08F002800F08980206881688907B1
:103DB0000CD5E18E51B1012D08D1216B002531F8D0
:103DC000022BC2602163E18E0139E1868168C90757
:103DD000DED0E18F0029DBD0C068A16B012521F87E
:103DE000020BA163E08F0138E087D1E739B1397860
:103DF0000173206B01302063E08E0138E0860125DD
:103E000018F1010032D101E0FDF748FFE08E10B952
:103E1000E08F002852D02068816889070ED5E18E96
:103E200061B1012D0AD1216B002509780173216B45
:103E3000206801312163E18E0139E1868168C9077B
:103E4000E2D0E18F0029DFD0C068A16B01250870A6
:103E5000A06B0130A063E08F0138E087D4E700BF9A
:103E6000FDF71CFFA0EB090040453DD2E08E08B9EC
:103E7000E08F18B32068816889070ED5E18E61B1A3
:103E8000012D0AD1216B002509780173216B20686F
:103E900001312163E18E0139E1868168C907DFD0F4
:103EA000E18F0029DCD0C068A16B01250870A06BF0
:103EB0000130A063E08F0138E087D1E7204602217E
:103EC00001224346CDF8009002F0FCFCB0B1606DD9
:103ED00040F02000606520206065002084F85000DC
:103EE000012003B0BDE8F083012084F851000020D8
:103EF00084F85000032003B0BDE8F08340F2700066
:103F0000C2F20000006849F68171C1F25E61A0FB57
:103F10000101480D4FF47A71484302906068B0F592
:103F2000827F21D12046802100224346CDF8009097
:103F300002F0C8FC0028CAD1A06838B9002001905E
:103F40002068C1680191806801900198012084F87F
:103F50005100002084F85000606D002818BF012037
:103F600003B0BDE8F08300BF02980028E4D00298B7
:103F700001380290206880680006DDD5029800288C
:103F8000DAD0029801380290206880680006D3D504
:103F900002980028D0D002980138029020688068EA
:103FA0000006C9D502980028C6D0029801380290B0
:103FB000206880680006D7D4BEE700007047000084
:103FC00070470000002804BF0120704710B5044668
:103FD00090F83D0028B9002084F83C00204600F00D
:103FE0001FF8022084F83D002068211D02F08EFD9C
:103FF000012084F8460084F83E0084F83F0084F8ED
:10400000400084F8410084F8420084F8430084F8BA
:10401000440084F8450084F83D00002010BD0000F5
:1040200081B0006844F20041C4F20101884201D02D
:1040300001B070470020009043F64400C4F2020033
:10404000016841F400310160006800F40030009024
:10405000009801B07047000090F83D1001291CBF86
:1040600001207047022180F83D10006841F2FF7284
:10407000C168C4F20002904241F00101C1600DDC50
:1040800040F2FF71C4F20001884215DCB0F1804FAC
:104090002AD040F20041C4F2000123E040F2FF3197
:1040A000C4F20101884213DC41F60001C4F20001B0
:1040B000884219D0002113E040F60001C4F200014B
:1040C000884211D040F60041C4F200010AE000BF6E
:1040D00044F20001C4F20101884205D040F20041DF
:1040E000C4F20101884206D1816801F00701062966
:1040F00004BF00207047016841F001010160002009
:10410000704700007047000070B504460068C5683D
:104110000669B10716D515F0020113D06FF0020140
:104120000161012121778069800703D02046FFF7D4
:10413000E9FF05E0204600F08FF8204600F0D0F9B6
:1041400000202077700719D515F0040016D02068DC
:104150006FF00401016102212177806910F4407F32
:1041600004D02046FFF7CEFF06E000BF204600F057
:1041700073F8204600F0B4F900202077300717D5F7
:1041800015F0080014D020686FF0080101610421C7
:104190002177C069800703D02046FFF7B3FF05E011
:1041A000204600F059F8204600F09AF900202077C8
:1041B000F00619D515F0100016D020686FF0100128
:1041C000016108212177C06910F4407F04D02046A6
:1041D000FFF798FF06E000BF204600F03DF82046BC
:1041E00000F07EF900202077F00718BF15F00100DD
:1041F00002D1300609D412E020686FF0010101619C
:10420000204600F06FF9300609D515F0800006D081
:1042100020686FF0800101612046FFF7CFFE700635
:1042200009D515F0400006D020686FF0400101610B
:10423000204600F05FF9B00658BF70BD15F02000B1
:1042400008D021686FF0200220460A61BDE8704066
:10425000FFF7B6BE70BD0000704700002DE9F041C9
:1042600090F83C30012B04BF0220BDE8F0814FEAFA
:10427000B202032A00F2FC80DFE802F0023E7EBEBA
:10428000036840F200471C6A1A6A24F0020422F014
:1042900001021A621A46D3F804E052F818CF8E6869
:1042A00043F48065C4F20107BD4244EA060405D127
:1042B000CE6824F00C0426F0040634430E68BD4298
:1042C00007D1D1E905572EF4407E45EA0E0545EAAF
:1042D000070E2CF073073743C3F804E09F614F6863
:1042E00009695F631C629F6947F008079F619F69C6
:1042F00027F004079F61B1E0036840F200481C6AA0
:104300001A6A24F0200422F010021A621A46D3F826
:1043100004E052F818CF8F6843F48065C4F20108B6
:10432000454544EA071407D1CF686FF0400624F0F2
:10433000C00406EA071634430F68454507D1D1E9A2
:1043400005562EF4406E4EEA850545EA860E2CF49D
:10435000E64646EA0727C3F804E09F614F6809690B
:104360009F631C629F6947F400679F619F6927F400
:1043700080679F6171E000BF036840F200481C6ADB
:104380001A6A24F4007422F480721A621A46D3F86E
:1043900004E052F81CCF8F6843F48065C4F2010832
:1043A000454544EA072408D1CF6840F2FF463F0262
:1043B00024F4406427EA060634430F68454507D1D4
:1043C000D1E905562EF4405E4EEA051545EA061E73
:1043D0002CF073063743C3F804E0DF614F680969C6
:1043E000DF631C62DF6947F00807DF61DF6927F0E0
:1043F0000407DF6132E000BF036840F20045D3F8F4
:1044000020C01A6A43F4806722F480521A621A4666
:104410005C6852F81CEFD1F800808E68C4F2010588
:10442000AF4204D14D6924F4804444EA85142CF44D
:10443000005747EA06372EF4E64646EA08265C604F
:10444000DE614E6809691E641F62DF6947F4006718
:10445000DF61DF6927F48067DF61090213681943B0
:1044600011600021002280F83C200846BDE8F08160
:104470000121002280F83C200846BDE8F0810000C0
:10448000002804BF0120704710B5044690F83D0095
:1044900028B9002084F83C00204600F01FF80220D4
:1044A00084F83D002068211D02F030FB012084F8D3
:1044B000460084F83E0084F83F0084F8400084F809
:1044C000410084F8420084F8430084F8440084F8F2
:1044D000450084F83D00002010BD0000704700003A
:1044E000704700000068B0F1804F08BFFDF7C8BEFC
:1044F0007047000070470000FEE700002DE9F0471C
:1045000082B0044600680E460168DDF828A041F438
:10451000806101600168DDF82C9041F480711D46D6
:104520001746016020464FF0011100225346CDF896
:10453000009000F033F958B120680068C00544BF0E
:104540004FF400702064032002B0BDE8F08700BF84
:1045500040F202082068C0F2010806F0FE0606617B
:104560002046414652464B4600F002FA20B1012057
:1045700002B0BDE8F08700BF0020019020684A46E5
:10458000416901918069514601900198204600F0EF
:10459000A7FA98B9012D08D02068390A0161204690
:1045A00051464A4600F09CFA40B92068F9B20161D0
:1045B000204651464A4600F093FA58B1206C042830
:1045C000D5D12068016841F400710160012002B07A
:1045D000BDE8F087206800220168534641F48071ED
:1045E000016020464FF00111CDF8009000F0D6F8A0
:1045F0000028A1D1206846F0010101612046414612
:1046000052464B4600F0B4F9002818BF012002B012
:10461000BDE8F0872DE9F04383B0044600680D46FD
:1046200001680A9F0B9E41F4807199469046016093
:1046300020464FF0011100223B46009600F0AEF8F4
:1046400050B120680068C00544BF4FF4007020647A
:10465000032003B0BDE8F083206805F0FE0101618E
:104660000221C0F2010120463A46334600F080F9AB
:1046700020B1012003B0BDE8F08300BF002002900C
:104680002068324641690291806939460290029859
:10469000204600F025FA58B1206C0428E9D12068A2
:1046A000016841F400710160012003B0BDE8F083AE
:1046B000B9F1010F0AD020684FEA182101612046A4
:1046C0003946324600F00CFA0028E5D120685FFA3E
:1046D00088F10161002003B0BDE8F08370B5036884
:1046E000044653F8140F400711D40E46481C29D035
:1046F00086BB00BF1868400527D4FDF7CFFA2368B2
:1047000053F8140F400739D518684007F2D5002038
:1047100070BD00BF18684007F9D41868400514D46C
:1047200018684007F3D4186840050ED4186840078D
:10473000EDD41868400508D4186840074FF0000011
:1047400048BF70BD18684005E4D56FF480601860FC
:10475000042014E0154603E053F8140F4007D6D4A4
:1047600018684005F1D4FDF799FA401B2368B04260
:10477000F2D958694007EFD4202000E02020002122
:104780002022216384F83D2084F83E10226C1043DF
:104790002064012084F83C1070BD00002DE9F04138
:1047A000054600681E46144601F47F0201338FB2AD
:1047B00042D0DDF81880B2F5803F40F08780406934
:1047C0003840C01BB0FA80F04009A04240F0C880D9
:1047D0004EB924E040693840C01BB0FA80F040096F
:1047E000A04240F0BD80FDF759FAA0EB080128680F
:1047F000B142EFD941693940C91BB1FA81F1490988
:10480000A142E7D19BE000BF40693840C01BB0FA2D
:1048100080F04009A0424FF0000040F0A680FDF774
:104820003DFA286841693940C91BB1FA81F149094B
:10483000A142E9D183E000BFB2F5803F24D100BF9F
:1048400041693940C91BB1FA81F14909A14240F0DF
:10485000878041693940C91BB1FA81F14909A142F8
:1048600040F07E8041693940C91BB1FA81F14909A4
:10487000A14275D141693940C91BB1FA81F1490999
:10488000A142DDD06CE000BF81693940C91BB1FA9B
:1048900081F14909A14263D181693940C91BB1FA4B
:1048A00081F14909A1425BD181693940C91BB1FA43
:1048B00081F14909A14253D181693940C91BB1FA3B
:1048C00081F14909A142DFD04AE000BF8069384048
:1048D000C01BB0FA80F04009A04241D146B923E0A4
:1048E00080693840C01BB0FA80F04009A0423BD13B
:1048F000FDF7D4F9A0EB08012868B142F0D981692D
:104900003940C91BB1FA81F14909A142E8D116E049
:1049100080693840C01BB0FA80F04009A0424FF0D7
:10492000000018BFBDE8F081FDF7B8F9286881697B
:104930003940C91BB1FA81F14909A142E8D10020EF
:104940002021286385F83D1085F83E00296C41F050
:104950002001296485F83C000120BDE8F08100BFFA
:104960000020BDE8F08100BF0020BDE8F08100001C
:10497000F0B581B0044600681D4643698FB203EA72
:104980000701B94202D1002001B0F0BD41691646CD
:10499000013201F4806125D0002940D1CEB100BFA1
:1049A000FDF77CF9411B2068B14203D941693940C8
:1049B000B9424BD141693940B942E4D04169490516
:1049C000EED52CE041693940B942DCD04169490556
:1049D00025D4FDF763F9206841693940B942F1D027
:1049E000202024E0D9B941693940B942CBD041698E
:1049F000490514D441693940B942C4D041694905D7
:104A00000DD441693940B942BDD04169490506D448
:104A100041693940B942B6D041694905E3D50168D9
:104A200041F4007101606FF4806141610420002154
:104A30002022216384F83D2084F83E10226C10432C
:104A4000206484F83C10012001B0F0BD2020EEE786
:104A500070B504460068154650F8143F5A063DD418
:104A60000E4629B926E000BF50F8141F490635D478
:104A70000168C90621D4FDF711F9411B2068B14234
:104A8000F2D941694906EFD400202021206384F83F
:104A90003D1084F83E00206C40F0200018E000BF7C
:104AA000FDF7FCF8206850F8141F4906ECD50168A2
:104AB000490613D40168C906F2D56FF010010160F0
:104AC00000202021206384F83D1084F83E00206CF3
:104AD0002064002084F83C00012070BD002070BDDF
:104AE00070B50368044653F8140F000611D40E463F
:104AF000481C29D086BB00BF1868400527D4FDF7A5
:104B0000CDF8236853F8140F000639D5186800064D
:104B1000F2D5002070BD00BF18680006F9D41868EF
:104B2000400514D418680006F3D4186840050ED464
:104B300018680006EDD41868400508D41868000607
:104B40004FF0000048BF70BD18684005E4D56FF411
:104B500080601860042014E0154603E053F8140F39
:104B60000006D6D418684005F1D4FDF797F8401B2D
:104B70002368B042F2D958690006EFD4202000E043
:104B8000202000212022216384F83D2084F83E105B
:104B9000226C10432064012084F83C1070BD00009A
:104BA00084B0072005F0AAFD40F20804C2F2000418
:104BB000207860B1FBF714FD2070642005F09EFDA5
:104BC00020780028F6D102E0642005F097FD05F07A
:104BD000FBFB0028F8D140F2D03AC2F2000A0AF1F9
:104BE00014000AF104010AF110020390CDE9012139
:104BF000FBF70EFD4DF6D8429FEDA30ADFEDA30AA9
:104C00000AF12400C0F6000200210090002500F007
:104C100091FF40F2FC2BC2F2000B4FF07E50CBE92B
:104C200010050020CBE9125505F0A4FD06F0D8FCD4
:104C3000CBF8080042F28810C2F200001021C161D6
:104C4000FEF726FF002818BFFCF724F9601D0BF1C2
:104C50001401082201F08AFD9FED890B9FED8C8ADB
:104C60009FED8CBA01200BF14007BFEE00AA55EC76
:104C7000104B0BF10E060BF11E080AF120098BF800
:104C8000030092E041F2873005F050FB0AF1040086
:104C9000D0EC031A0AF1140090EC030A0BF1540053
:104CA00090EC033A384600F047FB9BED101A9BED61
:104CB000112A9BED120A9BED133A22EE000A21EE17
:104CC000033A22EE022A21EE011A31EE021A33EEE5
:104CD000000A31EE011A30EE000A71EE0A0A07F0FE
:104CE00077FB8BED0A0A9BED100A9BED111A9BEDE9
:104CF000122A9BED133A22EE000A21EE031A30EE3F
:104D0000410A30EE000A07F0CDFA8BED0B0A9BED5D
:104D1000101A9BED120A9BED132A9BED113A20EE1F
:104D2000020A21EE033A22EE022A21EE011A31EEA6
:104D3000021A33EE000A31EE011A30EE000A71EE6B
:104D40000A0A07F045FBB0EE409A8BED0C0A9BED8A
:104D50000A0A9BED0BCA30EE000A10EE100A08F0AA
:104D60005FFE22462B4608F063FC08F0D3F93CEEC8
:104D70000C0ACBF8340010EE100A08F051FE22465F
:104D80002B4608F055FC08F0C5F939EE090ACBF8B6
:104D9000380010EE100A08F043FE22462B4608F0B9
:104DA00047FC08F0B7F9CBF83C0001204FF0FF3189
:104DB00005F0DEFF0128F8D19BF80000000709D5B7
:104DC0009BF8000000F0F701584600F8151B039906
:104DD000FBF7DEFB9BF8010040070AD59BF80100BA
:104DE0004A4600F0FB008BF8010002994046FBF7B1
:104DF0008FFB9BF8020040077FF548AF9BF802004D
:104E000000F0FB008BF8020001993046FBF7E8FC4C
:104E10009BF805009AED040A012815D10098F0EEE0
:104E2000480A00F0D9FD9AED110AB5EE400AF1EEFC
:104E300010FABEBF0020CAF84400B0EE4B0ABDEE27
:104E4000C00A10EE100A1FE7B4EE480AF1EE10FA9D
:104E50007FF718AF9BF804000130C1B2C9298BF865
:104E60000400FFF40FAF01208BF8050044F20000AE
:104E7000C4F21C50CAF84C0004E700BF00BF00BFDA
:104E800024AC9522DCA55C4000A08C4500808945BF
:104E9000000034420000000080B541F6403046F288
:104EA0000041C2F20000C4F200010322002380E8A6
:104EB0000E0000F10C014FF4102C4FF4001E81E89D
:104EC000085083618383FCF78FFA002808BF80BDF8
:104ED000BDE88040FBF7DEBF80B541F6683046F69E
:104EE0000001C2F20000C4F200010322002380E8A6
:104EF0000E0000F10C014FF4102C4FF4001E81E85D
:104F0000085083618383FCF76FFA002808BF80BDD7
:104F1000BDE88040FBF7BEBF80B582B000200190A5
:104F200043F63000C4F202000168002241F480011F
:104F300001600068052100F48000019001983A208A
:104F4000FDF756FA3A20FDF743FA3B2005210022EF
:104F5000FDF74EFA3B2002B0BDE88040FDF738BABD
:104F6000F0B595B04DF66C40C0F6000090E81E50CC
:104F700080690EAD85E81E5014900EA8002105F042
:104F8000CBFB40F2B017C2F2000738604DF6884004
:104F9000C0F6000090E87E0080690DF11C0C8CE8E2
:104FA0007E000D9007A8002105F0B6FB78604DF655
:104FB0005040C0F6000090E84E00D0E904548069EB
:104FC0008DE84E00069068460021CDE9045405F0B6
:104FD000A3FBB86015B0F0BD2DE9F04F87B00026F7
:104FE00043F6300006960196C4F20200016841F6CD
:104FF000000A41F0020101600168C4F2020A01F0F6
:1050000002010191019901960168012241F001011B
:1050100001600168402701F00101019101990196A9
:105020000168012441F008010160016801F00801F4
:10503000019101990196016841F004010160016844
:1050400001F00401019101990196016841F080018C
:105050000160016801F080010191019901960168E8
:1050600041F040010160016801F0400101910199A6
:105070000196016841F0200101600068402100F0C4
:105080002000019001985046FCF702FE0AF5806569
:1050900028464FF4E05100224FF4E05BFCF7F8FDA6
:1050A000AAF5C059484610210122FCF7F1FDAAF5E6
:1050B000A058404601210122FCF7EAFDCDE9027427
:1050C00002AF50463946CDE90444FCF703FD2846BB
:1050D0003946CDE902B4CDE90466FCF7FBFC0920B2
:1050E00002904FF4041550463946CDE90354FCF7BD
:1050F000F1FC1020CDE9020402264846394604940A
:105100000596FCF7E7FC3020CDE90205AAF58050B2
:1051100039460494FCF7DEFC40463946CDE90244AA
:10512000CDE90446FCF7D6FC062006210022FDF757
:105130005FF90620FDF74CF9092005210022FDF753
:1051400057F90920FDF744F90A2005210022FDF74F
:105150004FF90A20FDF73CF9172005210022FDF741
:1051600047F91720FDF734F907B0BDE8F08F0000CC
:1051700080B541F6504045F60041C2F20000C4F24D
:10518000000141F6802200234FF4804CC0F2060259
:1051900080E80E00C0E9033CC0E90533C0E90733ED
:1051A000FCF782FD002808BF80BDBDE88040FBF70A
:1051B00071BE0000B0B542F2881043F20001C2F2A5
:1051C0000000C4F201014FF48272002380E80E0057
:1051D00000F10C014FF0020C4FF0010E4FF400747F
:1051E000382581E808500A21C0E90645C0E908339E
:1051F000C0E90A31FEF74CFC002808BFB0BDBDE88D
:10520000B040FBF747BE0000B0B58CB044F200459B
:1052100042F2E010C4F201050021C2F200004FF694
:10522000FF72CDE90511CDE90311C0E90051C0E9D4
:10523000021201618161FEF7C5FE002818BFFBF76D
:1052400029FE42F2E010C2F20000FFF719F900282F
:1052500018BFFBF71FFE602042F2E0140090002010
:10526000C2F20004CDE90100049069462046002204
:10527000FEF7F4FF002818BFFBF70CFE2068A842D9
:1052800002D00CB0B0BD00BF002043F63001079043
:10529000C4F202010A6842F020020A60096801F0C3
:1052A000200107910799402107910221CDE90810BB
:1052B0000A9003200B9005F5504007A9FCF70AFC63
:1052C0000CB0B0BD80B541F6640040F25401C2F2AA
:1052D0000000C2F20001002202F046F9002818BFC7
:1052E000FBF7D8FD41F6640040F27401C2F2000001
:1052F000C2F2000102F09EFB002818BFFBF7CAFDB6
:1053000041F6640040F21011C2F20000C2F2000146
:1053100001F052FE002818BFFBF7BCFD41F6640007
:10532000C2F2000002F0B0FB002808BF80BDBDE85B
:105330008040FBF7AFBD0000B0B52DED108B84B001
:10534000B5EE403AB0EE418AB0EE609AB0EE40AAB7
:10535000F1EE10FA044617D1F5EE403AF1EE10FAEC
:1053600012D1B5EE404AF1EE10FA0DD12046B0EE62
:105370004A0AF0EE490AB0EE481A04B0BDEC108BB0
:10538000BDE8B04000F0E8B9F5EE401A45F6DF158B
:10539000F1EE10FAC5F637750AD1B5EE402AF1EEF6
:1053A00010FA05D1F5EE402AF1EE10FA00F04A812C
:1053B00022EE020A21EEA11A31EE005A23EEA30AD0
:1053C00023EE031A31EE000A24EE041A31EE000A2D
:1053D00010EE100AFEEE006AA5EB600001EE100A66
:1053E00020EE260A20EE010AB7EE086A20EE010A36
:1053F00030EE060A20EE010A20EE03BA20EE23CAA0
:1054000020EE04EA94ED020A94ED031A20EE004A1D
:10541000B6EE003A21EE01FA8DED024A33EE444A2F
:1054200074EE4F5A94ED004A94ED017A64EE010A4D
:1054300067EE003A73EEE07A60EE01FA67EE019AE9
:1054400033EEA01A67EE070A73EE608A38EECF3AA1
:105450006CEE274ACDED035A6BEE255A24EE00DAA6
:105460002CEE033A2BEE011A64EE07AA75EEA44A5D
:105470007DEE295A31EE031A3FEEEA3A2EEE250A66
:105480002EEE033A30EE240A33EE011A30EE000A13
:1054900031EE011A21EE011A20EE000A30EE011A57
:1054A000B1EEC10A22EEA23A33EE053A13EE100A2B
:1054B000A5EB600023EE263A05EE100A23EE053A2E
:1054C00023EE053A33EE063A23EE053A63EE21CA9F
:1054D00063EE02DA63EE22EAB4EE400AF1EE10FA6D
:1054E00064EE04BA80F1248139EECD2A3AEEAF3A67
:1054F0002CEE031A2BEE024A34EE011A9DED024AFD
:105500009DED036A38EEC44A2EEE045A35EE011AB8
:1055100031EE011A3BEEA65A20EE066A22EE017A1F
:1055200035EE0F5A36EE076A20EE277A63EE010A4F
:1055300024EE011A20EE250A37EE207A30EE011A09
:1055400023EE2E0A2DEE854A34EE400A27EE0E4A4F
:105550006CEE010A30EEC44A34EE000A25EE2C4A05
:105560002EEE825A40F2642035EE444A21EE0B1AA8
:105570002EEE065AC2F2000035EE411A22EE2D2A16
:105580002CEE833A90ED005A31EE041A33EE422AA3
:1055900026EE0C3A2BEE074A34EE433AB5EE405A6B
:1055A000F1EE10FA33EE022A32DD90ED003A9FED73
:1055B000684A20EE033A90ED015A23EE043A33EEA6
:1055C000053A80ED013A90ED003A90ED025A21EE55
:1055D000033A23EE043A33EE053A80ED023A90EDB9
:1055E000003A90ED035A22EE033A23EE043A33EEEA
:1055F000053A80ED033A90ED013A33EE0AAA90EDB8
:10560000023A90ED034A33EE099A34EE088A03E039
:10561000002141608160C16040F24410C2F200008C
:1056200090ED003A23EE000A90ED003A30EE0AAA1F
:1056300023EE010A90ED001A30EE099A21EE020ADB
:1056400030EE088A9FED430A94ED014A94ED025A28
:105650002AEE001A29EE002A94ED036A28EE000AC9
:1056600094ED003A22EE057A64EE410A30EEC77AF4
:1056700066EE000A37EE607A60EE050A63EE011A04
:1056800071EEA00A66EE021A70EEE10A60EE041AEC
:1056900063EE022A72EEE11A66EE012A22EE042A75
:1056A00023EE000A33EE077A74EE200A72EEA11A96
:1056B00030EE020A25EE011A75EE211A30EE410A8B
:1056C00020EEA01A27EE072A36EE000A32EE011A63
:1056D00021EEA12A32EE011A20EE002A32EE011A42
:1056E00011EE100AA5EB6000BEEE003A02EE100AC1
:1056F00021EE031A21EE021A21EE021AB7EE083A41
:1057000031EE031A21EE021A27EE012A20EE813A29
:1057100021EE814A20EE010A84ED002A84ED013A4F
:1057200084ED024A84ED030A04B0BDEC108BB0BDD9
:10573000B0EE410ACDED017ACDED005A07F068F8E0
:10574000DDED005ADDED017AFEEE006ACCE600BF29
:105750006F12833A6F12033AF5EE401A45F6DF11E5
:10576000F1EE10FAC5F6377110D1B5EE402AF1EE20
:1057700010FA0BD1F5EE402AF1EE10FA06D190EDB9
:10578000014A90ED023A90ED032AA9E022EE023A96
:1057900021EEA14A34EE033A22EEA24A34EE033A55
:1057A00013EE102AA1EB6202BEEE005A04EE102A9C
:1057B00023EE053A23EE043A23EE043AB7EE086AE4
:1057C00033EE063A23EE043A23EE217A63EE021A10
:1057D00023EE226AD0ED002A90ED014A90ED023AC4
:1057E00090ED032A63EE223A64EE024A62EE845A96
:1057F00062EEA22A74EEE33A62EE034A32EE855A72
:1058000062EE022A75EEA44A72EE852A40F2642204
:1058100024EE865A61EEA25A62EE872A26EE236AA9
:10582000C2F2000236EE626AD2ED002A63EEA11ADD
:1058300027EE247AF5EE402A35EEC55AF1EE10FA3D
:1058400037EE617A32DDD2ED001ADFED5C2A65EECB
:10585000211AD2ED013A61EEA21A71EEA31AC2ED3D
:10586000011AD2ED001AD2ED023A66EE211A61EE6B
:10587000A21A71EEA31AC2ED021AD2ED001AD2EDED
:10588000033A67EE211A61EEA21A71EEA31AC2ED75
:10589000031AD2ED011A31EE800AD2ED021AD2EDCE
:1058A000032A71EEA00A32EE811A03E0002353604E
:1058B0009360D36040F24412C2F20002D2ED001AAB
:1058C00021EE855AD2ED001A35EE000A21EE865AF5
:1058D00092ED006A75EE200A26EE075A35EE011A9F
:1058E0009FED375A20EE050A20EE856A21EE051A53
:1058F00090ED005A26EE037A64EE400A30EEC77A45
:1059000062EE010A37EE607A61EE030A65EE001A74
:1059100071EEA00A62EE061A70EEE10A74EE200A39
:1059200061EE041A65EE062A26EE044A25EE011AF7
:1059300072EEE11A62EE002A31EE041A23EE000A3A
:1059400035EE077A72EEA11A31EE400A73EE211A93
:1059500032EE000A20EEA01A27EE072A32EE011AD4
:1059600021EEA12A32EE011A20EE002A32EE011AAF
:1059700011EE102AA1EB6201BEEE003A02EE101AFF
:1059800021EE031A21EE021A21EE021AB7EE083AAE
:1059900031EE031A21EE021A27EE012A20EE813A97
:1059A00021EE814A20EE010A80ED002A80ED013AC5
:1059B00080ED024A80ED030A704700BF6F12833A00
:1059C0006F12033AFEE70000FEE7000041F6A44034
:1059D000C2F20000FCF7F6BE002857D0017890ED27
:1059E0000F1A90ED102A80ED070A30EEC00A002948
:1059F000C0ED060A80ED0F0A80ED101A80ED112A25
:105A000048D0012940F0908090ED015A90ED026A53
:105A100030EE414A31EE011A90ED037A24EE054A48
:105A200020EE065A30EE410A32EE000AD0E90C129E
:105A300080ED0C0A20EE070A34EE051A90ED082AD4
:105A400090ED043A80ED0B0A31EE000A32EE000AC6
:105A5000B4EE430AF1EE10FA80ED094A80ED0A5ADD
:105A6000C0E90D1280ED080AC2BF80ED083AB0EE21
:105A7000430A7047B1EE431AB4EE410AF1EE10FA50
:105A8000BCBF80ED081AB0EE410A70479FED280AAE
:105A9000704700BF90ED024A90ED0A6A90ED012A2E
:105AA00090ED053A24EE004A90ED035A34EE064A92
:105AB00020EE022AD0E90C1230EE410AB4EE434A3D
:105AC00080ED0C0A20EE050AF1EE10FA80ED092AAD
:105AD00080ED0A4AC0E90D1280ED0B0A06DCB1EE3A
